:10000000B0EF07F00000000000EF00F0000000007B
:0A0010000000000000000000F3D71C
:0E001C000001F9B102D08B9E01D08B8E120034
:0E002A000001F9B102D08B9C01D08B8C12002A
:0E0038000001F9B102D08D9201D08D8212002C
:0E0046000001F9B102D08B9801D08B88120016
:0E0054000001F9B102D08B9A01D08B8A120004
:0E0062000001F9B102D08D9601D08D861200FA
:0E0070000001F9B102D0899201D089821200FC
:0E007E000001F9B102D08A9201D08A821200EC
:0E008C000001F9B102D0899801D089881200D4
:0E009A000001F9B102D08A9001D08A801200D4
:0E00A800ACB202D00000FCD7F9C0ADFF1200D0
:0E00B6000001F9B102D08B9601D08B861200AA
:0E00C4000001F9B102D0899001D089801200AC
:0E00D2000001F9B102D08B9601D08B8612008E
:0E00E0000001F9B102D08B9601D08B86120080
:1000EE000F0121B302D00000FBD7F9C01CFF120094
:0E00FE000001F9B102D08B9801D08B8812005E
:0E010C000001F9B102D08B9C01D08B8C120047
:0E011A000001F9B102D08B9201D08B8212004D
:0E0128000001F9B102D08B9A01D08B8A12002F
:0E0136000001F9B102D08B9E01D08B8E120019
:0E0144000001F9B102D08B9601D08B8612001B
:0E0152000001F9B102D08F9401D08F84120009
:0E0160000001F9B102D08A9401D08A84120005
:0E016E000001F9B102D08F9001D08F801200F5
:0E017C000001F9B102D08B9801D08B881200DF
:0E018A000001F9B102D0899401D089841200DD
:0E0198000001F9B102D08B9601D08B861200C7
:0E01A6000001F9B102D08B9601D08B861200B9
:0E01B4000001F9B102D08F9201D08F821200AB
:0E01C2000001F9B102D08B9801D08B88120099
:0E01D0000001F9B102D08B9801D08B8812008B
:0E01DE000001F9B102D08D9401D08D84120081
:0E01EC000001F9B102D08B9801D08B8812006F
:0E01FA000001F9B102D08B9401D08B84120069
:0E0208000001F9B102D08B9001D08B80120062
:0E0216000001F9B102D08D9001D08D80120050
:0E0224000001F9B102D08B9A01D08B8A120032
:10023200086A096A100E0C6E013408360936045039
:10024200085E0550D8A0053C095ED8B007D004501E
:1002520008260550D8B0053C0926D890003601364C
:060262000C2EEAD7120089
:0A026800750E0D6E0D2EFED712006C
:10027200A80E0001DC6F000EDD6FF90EDE6F000EBE
:10028200DF6FFF0ED86FFF0ED96F000EDA6F000E10
:10029200DB6FFF0EE46FFF0EE56F000EE66F000EE0
:1002A200E76FFF0EE06FFF0EE16F000EE26F000ED0
:1002B200E36FAC8A900EAB6E948E949C9EAA03D090
:0802C200AECF00F0FBD71200E3
:1002CA00EE0E0001DC6F000EDD6FF90EDE6F000E20
:1002DA00DF6FFF0ED86FFF0ED96F000EDA6F000EB8
:1002EA00DB6FFF0EE46FFF0EE56F000EE66F000E88
:1002FA00E76FFF0EE06FFF0EE16F000EE26F000E78
:10030A00E36F0F01218B900E226F98849892A4AA12
:0A031A0003D01DCF00F0FBD7120046
:10032400F250026EF29E0500FF6A0150FE6E00500C
:08033400FD6E02BEF28E120004
:10033C0038D00F0120870D0E1F6F040E1E6F218504
:10034C00BEDF7ED00F012087060E1F6F820E1E6F40
:10035C002185B5DF75D00F012087030E1F6F400E6E
:10036C001E6F2185ACDF6CD00F012087010E1F6F33
:10037C00A00E1E6F2185A3DF63D00F012087010E15
:10038C001F6F150E1E6F21859ADF5AD00F01208723
:10039C001F6B8A0E1E6F218592DF52D0060E006EE7
:1003AC0059D0000E006E0001F51908E10050F41947
:1003BC0005E1120EF31902E1F251C00ABAE0000E87
:1003CC00006EF51908E10050F41905E1250EF3193A
:1003DC0002E1F251800AB6E0000E006EF51908E158
:1003EC000050F41905E14B0EF31902E1F251000A29
:1003FC00B2E0000E006EF51908E10050F41905E1A9
:10040C00960EF31902E1F251000AAEE0000E006EF6
:10041C00F51908E10050F41905E1E10EF31902E1B8
:10042C00F251000AAAE0F551000A08E1F451010A60
:10043C0005E1F351C20A02E1F251000AA7E0AED77E
:10044C000001EE0ED46F000ED56FF90ED66F000EB4
:06045C00D76F006A1200D8
:1004620021D0CF0EAF6EAC9403DF6BD0670EAF6EB0
:10047200AC94FEDE66D0CF0EAF6EAC84F9DE61D0F6
:10048200670EAF6EAC84F4DE5CD0440EAF6EAC840B
:10049200EFDE57D0220EAF6EAC84EADE52D0060EEB
:1004A200006E58D00001000E006EF51908E10050F0
:1004B200F41905E1120EF31902E1F251C00AD1E07A
:1004C200000E006EF51908E10050F41905E1250E41
:1004D200F31902E1F251800AC9E0000E006EF5192B
:1004E20008E10050F41905E14B0EF31902E1F25153
:1004F200000AC1E0000E006EF51908E10050F4197F
:1005020005E1960EF31902E1F251000AB9E0000E7C
:10051200006EF51908E10050F41905E1E10EF31936
:1005220002E1F251000AB1E0F551000A08E1F4518A
:10053200010A05E1F351C20A02E1F251000AAAE0FE
:10054200AED7A80ED46F000ED56FF90ED66F000E7F
:06055200D76F006A1200E1
:10055800300E0001F225F66E000EF321F76E000E44
:10056800F421F86E0900F5CFD0F00900F5CFD1F0ED
:0E0578000900F5CFD2F00900F5CFD3F0120044
:1005860021D0CF0EAF6EAC9471DE6BD0670EAF6E1E
:10059600AC946CDE66D0CF0EAF6EAC8467DE61D0F5
:1005A600670EAF6EAC8462DE5CD0440EAF6EAC8478
:1005B6005DDE57D0220EAF6EAC8458DE52D0060EEA
:1005C600006E58D00001000E006EF51908E10050CB
:1005D600F41905E1120EF31902E1F251C00AD1E055
:1005E600000E006EF51908E10050F41905E1250E1C
:1005F600F31902E1F251800AC9E0000E006EF51906
:1006060008E10050F41905E14B0EF31902E1F2512D
:10061600000AC1E0000E006EF51908E10050F41959
:1006260005E1960EF31902E1F251000AB9E0000E57
:10063600006EF51908E10050F41905E1E10EF31911
:1006460002E1F251000AB1E0F551000A08E1F45165
:10065600010A05E1F351C20A02E1F251000AAAE0D9
:10066600AED7A80ED46F000ED56FF90ED66F000E5A
:06067600D76F006A1200BC
:10067C005DD00001F3B102D0929401D092840F01AD
:10068C0025957AD00001F3B102D0969601D09686CA
:10069C0073D00001F3B102D0969401D096846CD043
:1006AC000001F3B102D0949601D0948665D000017C
:1006BC00F3B102D0949801D094885ED00001F3B1CC
:1006CC0002D0949A01D0948A57D00001F3B102D091
:1006DC00989001D0988050D00001F3B102D093943F
:1006EC0001D0938449D00001F3B102D0989401D089
:1006FC0098840F01239540D00001F3B102D0989259
:10070C0001D098820F01239337D00001F3B102D0AE
:10071C00949601D0948630D00001F3B102D0949815
:10072C0001D0948829D0010E006E28D00001F2511E
:10073C00000A9FE0F251010AA5E0F251020AA9E079
:10074C00F251030AADE0F251040AB1E0F251050A8C
:10075C00B5E0F251060AB9E0F251070ABDE0F251D8
:10076C00080AC1E0F251090AC7E0F2510A0ACDE0C9
:0E077C00F2510B0AD1E0D7D7000E006E12002A
:10078A0059D00001F3B102D0929201D092820F01A6
:10079A00259376D00001F3B102D0929801D09288C5
:1007AA006FD00001F3B102D0969201D0968268D040
:1007BA000001F3B102D0949601D0948661D0000171
:1007CA00F3B102D0949801D094885AD00001F3B1C1
:1007DA0002D0949A01D0948A53D00001F3B102D086
:1007EA00949401D094844CD00001F3B102D0939236
:1007FA0001D0938245D00001F3B102D0949E01D07A
:10080A00948E3ED00001F3B102D0949C01D0948C16
:10081A0037D00001F3B102D0949601D0948630D03B
:10082A000001F3B102D0949801D0948829D0010E26
:10083A00006E28D00001F251000AA3E0F251010A29
:10084A00A9E0F251020AADE0F251030AB1E0F25115
:10085A00040AB5E0F251050AB9E0F251060ABDE010
:10086A00F251070AC1E0F251080AC5E0F251090A39
:10087A00C9E0F2510A0ACDE0F2510B0AD1E0D7D70A
:06088A00000E006E1200DA
:1008900059D00001F3B102D0929001D092800F01A3
:1008A000259176D00001F3B102D0949001D09480CC
:1008B0006FD00001F3B102D0969001D0968068D03D
:1008C0000001F3B102D0949601D0948661D000016A
:1008D000F3B102D0949801D094885AD00001F3B1BA
:1008E00002D0949A01D0948A53D00001F3B102D07F
:1008F000949201D094824CD00001F3B102D0939035
:1009000001D0938045D00001F3B102D0949E01D074
:10091000948E3ED00001F3B102D0949C01D0948C0F
:1009200037D00001F3B102D0949601D0948630D034
:100930000001F3B102D0949801D0948829D0010E1F
:10094000006E28D00001F251000AA3E0F251010A22
:10095000A9E0F251020AADE0F251030AB1E0F2510E
:10096000040AB5E0F251050AB9E0F251060ABDE009
:10097000F251070AC1E0F251080AC5E0F251090A32
:10098000C9E0F2510A0ACDE0F2510B0AD1E0D7D703
:06099000000E006E1200D3
:1009960021D0CF0EAF6EAC9469DC6BD0670EAF6E14
:1009A600AC9464DC66D0CF0EAF6EAC845FDC61D0F5
:1009B600670EAF6EAC845ADC5CD0440EAF6EAC846E
:1009C60055DC57D0220EAF6EAC8450DC52D0060EEA
:1009D600006E58D00001000E006EF51908E10050B7
:1009E600F41905E1120EF31902E1F251C00AD1E041
:1009F600000E006EF51908E10050F41905E1250E08
:100A0600F31902E1F251800AC9E0000E006EF519F1
:100A160008E10050F41905E14B0EF31902E1F25119
:100A2600000AC1E0000E006EF51908E10050F41945
:100A360005E1960EF31902E1F251000AB9E0000E43
:100A4600006EF51908E10050F41905E1E10EF319FD
:100A560002E1F251000AB1E0F551000A08E1F45151
:100A6600010A05E1F351C20A02E1F251000AAAE0C5
:100A7600AED7A80ED46F000ED56FF90ED66F000E46
:060A8600D76F006A1200A8
:100A8C00D6C0E1FFD7C0E2FFF2C0E9FFF3C0EAFF36
:100A9C00EECFE6FFD4C000F0D5C001F03DDC006A1B
:020AAC00120036
:100AAE000001F66B050EF65D0AE2F651F425E16ED5
:100ABE00000EF521E26E200EE66EF62BF3D7F65100
:100ACE00F425E16E000EF521E26EE66AF607F651A8
:100ADE00F425F76F000EF521F86F0A0E046E000E66
:100AEE00056EF2C000F0F3C001F019EC01F008C081
:100AFE0000F009C001F0300E0026F7C0E1FFF8C08B
:100B0E00E2FF00C0E6FF0A0E046E000E056EF2C094
:100B1E0000F0F3C001F019EC01F000C0F2F001C0DA
:100B2E00F3F0000E011802E1000E001801E102D0F0
:060B3E00F607CDD71200FE
:100B44006A0E0001CC6F0B0ECD6FF20ECE6F000E4D
:100B5400CF6FC26A221C006E0050C1160F0EC01265
:060B6400C08EC2801200E9
:100B6A00830EC216F2C000F00036009000360090E4
:100B7A000050C21234EC01F0C282C2A201D0FDD7E9
:100B8A00C4CF01F0006A00C0F3F001C0F4F0C35012
:100B9A000012000E011200C0F3F001C0F4F0000EC2
:100BAA000014026E0150800B036E000E031802E15E
:100BBA00000E021803E00001F36BF46BF3C000F0BF
:060BCA00F4C001F012006E
:100BD0000001F26BCADF00C0E8F001C0E9F0000ECE
:100BE0000001EA6FEB6FE8C000F0E9C001F0EAC075
:080BF00002F0EBC003F012005B
:100BF80015D0E9C0F2F0EAC0F3F046DE1AD0E9C039
:100C0800F2F0EAC0F3F0BDDD14D0E9C0F2F0EAC0BA
:100C1800F3F030DD0ED0010E006E0BD00001E8516C
:100C2800000AE7E0E851010AEAE0E851020AEDE0CB
:040C3800F2D71200DD
:100C3C002DD0E9C0F2F0EAC0F3F0EBC0F4F0ECC058
:100C4C00F5F0A3DE31D0E9C0F2F0EAC0F3F0EBC06E
:100C5C00F4F0ECC0F5F031EC02F026D0E9C0F2F083
:100C6C00EAC0F3F0EBC0F4F0ECC0F5F09EEC01F050
:100C7C001BD0E9C0F2F0EAC0F3F0EBC0F4F0ECC02A
:100C8C00F5F07BDC11D0010E006E0ED00001E851A6
:100C9C00000ACFE0E851010AD6E0E851020ADEE092
:0A0CAC00E851100AE6E0EFD712004D
:100CB6000001EE6BEF6BE8C0F0F0E9C0F1F0800EDA
:100CC600E919006E800E005C02E1000EE85D0BE2A1
:100CD600010EEE6F000EEF6FE8510008F06FE9C0ED
:100CE600F1F0000EF157F0C0F2F0F1C0F3F0EAC0F7
:100CF600F4F0EBC0F5F0D8DE060EEC6F000EED6FEB
:100D0600000E006EED51005C02E1EC51000819E2A4
:100D1600EC51EA25E16EED51EB21E26E010EEC5D40
:100D2600006E000EED59016E0050EA25E96E015085
:100D3600EB21EA6EEECFE6FF010EEC5F000EED5BF7
:100D4600DFD7EAC0E1FFEBC0E2FF200EE66EEE5110
:100D5600EF111AE0EC6BED6BEC51EA25E96EED5103
:100D6600EB21EA6EEE50200A03E1EC4BED2BF4D7B3
:100D7600010EEC5F000EED5BEC51EA25E16EED51E4
:0A0D8600EB21E26E2D0EE66E120066
:100D9000E8C0F2F0E9C0F3F0EAC0F4F0ACEC02F025
:020DA00012003F
:100DA200E8C0EBF0E9C0ECF00D0E0001ED6F0A0EA9
:100DB200EE6F35D0EBC0F2F0ECC0F3F066DE3AD065
:100DC200EBC0E9FFECC0EAFFEE5209E0EBC0F2F043
:100DD200ECC0F3F05ADE0001EB4BEC2BF1D72AD03A
:100DE200EBC0E9FFECC0EAFFEE5209E0EBC0F2F023
:100DF200ECC0F3F04ADE0001EB4BEC2BF1D7000123
:100E0200ED0EF26F000EF36F40DEEE0E0001F26F98
:100E1200000EF36F3ADE0ED0060E006E0CD000010B
:100E2200EA51000AC7E0EA51010ACAE0EA51020A9D
:080E3200D7E0F2D7006A1200BC
:100E3A00090E0B6E1E0E0C6EE40E0D6E0D2EFED7F5
:0C0E4A000C2EFCD70B2EFAD70000120073
:040E560076DE120032
:100E5A00520E0B6E2B0E0C6E000E0D6E0D2EFED763
:0C0E6A000C2EFCD70B2EFAD70000120053
:100E76000001E86BE96B010EEA6FBBDE100E0001A4
:100E8600E86F800EE96F250EEA6F000EEB6FEC6FD0
:060E9600D2DED0DF1200E5
:100E9C000900F5CFE6FF0006FBE10106F9E11200BF
:100EAC00F10E0001E86F0F0EE96F000EEA6F6ADFBA
:100EBC00BEDF5C0EE86F000EE96F020EEA6F6BDFAF
:100ECC00700E0001E86F000EE96F020EEA6F63DF2F
:100EDC00840E0001E86F000EE96F020EEA6F5BDF13
:100EEC00B4DFA5DF370EE86F000EE96F020EEA6F74
:100EFC0052DF480E0001E86F000EE96F020EEA6F38
:040F0C004ADF1200A6
:100F10005FDE00C098F001C099F08FDF98C0E8F064
:100F200099C0E9F09A0EEA6F000EEB6FC4DE150E61
:100F3000E86F000EE96F010EEA6F33DF9A0E0001D1
:100F4000E86F000EE96F020EEA6F2BDF230E00013F
:100F5000E86F000EE96F020EEA6F23DF7EDF1200FA
:0E0F600029EC08F088DFA2DFD3DFFED7FFD731
:1010520010EE15F0830E006E010E016E6E0EF66E2E
:0E1062000F0EF76E000EF86E4EEC07F0120047
:0D0F6E00204144432076616C75653A2000F7
:010F7B00383D
:100F7C002D2D2D2D2D2D2D2D2D2D2D2D2D2D2D2D95
:040F8C002D2D2D00DA
:100F9000202020496E697469616C697A61746564A6
:010FA0000050
:100FA1002D2D2D2D2D2D2D2D2D2D2D2D2D2D2D2D70
:040FB1002D2D2D00B5
:100FB5002D2D2D2D2D2D2D2D2D2D2D2D2D2D2D2D5C
:040FC5002D2D2D00A1
:100FC90020416972207175616C69747920636C695B
:040FD900636B200026
:100FDD002D2D2D2D2D2D2D2D2D2D2D2D2D2D2D2D34
:040FED002D2D2D0079
:100FF100C400F9000802F9001602F900B600F90070
:101001007C01F9002801F9001A01F9009A00F900A0
:101011003601F9000C01F900E000F9004600F90081
:10102100FFFFFFFFFFFFFFFFFFFFFFFFFFFFFFFFCF
:10103100FFFFFFFFFFFFFFFFFFFFFFFFFFFFFFFFBF
:10104100FFFFFFFFFFFFFFFFFFFFFFFFFFFFFFFFAF
:020000040030CA
:0E00000015137F7CF98B91FFFFC0FFE0FF40DE
:00000001FF
